:020000040800F2
:20000000F0FF00101D1E070879F8000829180508BD1E0708BD1E0708BD1E07080000000012
:2000200000000000000000000000000075F8000871F80008000000006DF800089DDB0408E9
:20004000BD1E0708BD1E0708BD1E0708BD1E0708BD1E0708BD1E07087D2E0508452E0508EC
:200060000D2E0508D52D05089D2D050859CD060849CD060839CD060829CD060815CD0608F2
:2000800001CD0608EDCC0608BD1E0708BD1E0708BD1E0708BD1E0708BD1E0708652D05088C
:2000A0003DC10408BDC104082DC10408E1C10408B1C10408A1C1040891C10408590A070848
:2000C000610A07084D0A0708550A0708BD1E0708BD1E0708ADDF0408F1DE040835DE04086C
:2000E0002D2D0508BD1E0708311101081DC104084DC104080DC1040871C10408D9CC060895
:20010000BD1E0708F5A9060881C10408BD1E070879DD0408BDDC04084D090408390904085A
:20012000C5CC0608B1CC06089DCC060889CC060875CC0608BD1E0708BD1E0708BD1E0708AE
:20014000BD1E0708BD1E0708BD1E0708F9F1000861CC06084DCC060839CC060801DC040891
:20016000410A0708490A0708BD1E0708BD1E0708BD1E0708BD1E0708BD1E0708BD1E070847
:20018000BD1E0708BD1E0708FFFFFFFFFFFFFFFFFFFFFFFFFFFFFFFFFFFFFFFFFFFFFFFFA3
:2001A000FFFFFFFFFFFFFFFFFFFFFFFFFFFFFFFFFFFFFFFFFFFFFFFFFFFFFFFFFFFFFFFF5F
:2001C000FFFFFFFFFFFFFFFFFFFFFFFFFFFFFFFFFFFFFFFFFFFFFFFFFFFFFFFFFFFFFFFF3F
:2001E000FFFFFFFFFFFFFFFFFFFFFFFFFFFFFFFFFFFFFFFFFFFFFFFFFFFFFFFFFFFFFFFF1F
:20020000FFFFFFFFFFFFFFFFFFFFFFFFFFFFFFFFFFFFFFFFFFFFFFFFFFFFFFFFFFFFFFFFFE
:020000040800F2
:2028000000C00F0800001008FFFFFFFFFFFFFFFFFFFFFFFFFFFFFFFFFFFFFFFFFFFFFFFFE1
:20282000FFFFFFFFFFFFFFFFFFFFFFFFFFFFFFFFFFFFFFFFFFFFFFFFFFFFFFFFFFFFFFFFB8
:20284000FFFFFFFFFFFFFFFFFFFFFFFFFFFFFFFFFFFFFFFFFFFFFFFFFFFFFFFFFFFFFFFF98
:20286000FFFFFFFFFFFFFFFFFFFFFFFFFFFFFFFFFFFFFFFFFFFFFFFFFFFFFFFFFFFFFFFF78
:20288000FFFFFFFFFFFFFFFFFFFFFFFFFFFFFFFFFFFFFFFFFFFFFFFFFFFFFFFFFFFFFFFF58
:020000040800F2
:20400000AEBE08000E02000000000B0014020000000000FF000A0013020000000001351097
:2040200000030101000000000000000000000076000D0001000100000014050405000000D4
:204040000000000000000504050000000000000000010504050000000040000000020504F8
:20406000050000000000000000030504050000000000000000040504050000000000000018
:20408000000505040500000000000000001E05040500000000000000001F050405000000B4
:2040A0000064005200070009020000282A00FD01000019002A1000360000000000001A0045
:2040C0002B1142370000000000000000390000380000000000000700FB010000280F00FC84
:2040E0000100000000000000000000000C00F70100002401000000000A00F901000025006D
:2041000000004500160200002802FF3802FF2002002102001301011201002601001801FF34
:204120001901001A010000000000000000000000000000000000000000000000000000004A
:2041400000000000000000160034000000DC0532000000000000000000000001040E0011DE
:2041600002000000000000010101010A0012020100FFFFFFFF3E00180003000001030204BB
:2041800005060702000000000001006400DC051A046C070019750343080E00000100000049
:2041A000001E1E1E0101000000000000000000000000001100000200000000000000FF0091
:2041C000000000000B00FF01020002272C0101150008020100151617FFFF2D2E2F00FF3A58
:2041E0003B3CFFFF0900FA0100002C02000E002A020000960058022C0103000E0020020589
:204200000003643200F40196002A0006000100E001070000010020211312381800000002A8
:20422000000001020304050607C2012E04D007E8030C000A000C020000011F030012001141
:204240000000000100123456789ABC000000001A00FE010000013200300131000002000043
:204260000000000000FF01FF001600120003000000000100000553343035000008020020F8
:20428000000B000300AE014A015E012C0164010100000001000A019A01001E0A0000022A29
:2042A000001F000500000000000001000100050000010203000000000000000000000000CD
:2042C0000000000000008017000A00050200000000000016001B02000006000000E8030012
:2042E00000000000000000000012001B000200002600020301F40132000164F600210200BE
:2043000000000000000000000000000000000000000000000000000000000000000000009D
:2043200000000000000000000000000000000000000000000000000000000000000000007D
:2043400000000000000000000000000000000000000000000000000000000000000000005D
:2043600000000000000000000000000000000000000000000000000000000000000000003D
:2043800000000000000000FFFF000000FF1E0000FF3C0000FF5A0000FF780000FF96000062
:2043A000FFB40000FFD20000FFF00000FF0E0100FF2C0100FF4A0100FF0000000000000007
:2043C00000010B020D0A03050B030D0A030A0B040D0A03080B040D0A03070B030D0A0300F5
:2043E0000000000000060A0100000203060000000336003700010020003200C800D00796A9
:20440000001400320028004C0440060005500014000F00080064000100010005000A0000A3
:2044200000F40196000F000C0016000100C4090000190028002F0001000000000000000081
:2044400000000000000000000000000000000000000000000000000000000016002302021F
:2044600000000000000000000000000000FF0000000F001E0000000005010000000000000A
:204480001200050002000201000000000000000000008200FD070000EA00EA00CD004E008B
:2044A000CE00EA00EA00EA00EA00EA00EA00EA00EA00EA00EA00EA00EA00EA00EA00EA0078
:2044C000EA004939EA00EA00EA00EA00EA00EA00EA00EA00EA00EA00EA00EA00EA00EA00A4
:2044E000EA00EA00EA00EA00EA00EA00EA00EA00EA00EA00EA00EA00EA00EA00EA00EA001C
:20450000EA00EA00EA00EA00EA002300EA00EA00CD00EA007200F5010900980864001401D1
:20452000000A010A0000FF1F0000142800002C3700008000FFFFFFFF4600010200000000E4
:2045400000000000000000000000000000000000000000000000000000000000000000005B
:20456000000000000000000000000000000000005000C4FF00FFFFFFFF0100000005180B03
:204580000C00000000001600230002000A0000000000000000000000000000001400260090
:2045A000010002032300000115005802D90300000B0014000000030100230012000100022B
:2045C00000E80364000F0A00010A001E002A000A00090030000000FA00F4010000000000EE
:2045E0000000000000020000029E077D00FA00F401000105016400C2010E00030064004BB8
:2046000000000000002D50280078002F542E007D002D500000780032324B00000028000083
:204620000000000055F401900101374B000000FA00AC0D00000000320090015E01F4010052
:20464000000A64C8009001960000050F00010F0114004B3200005A140B00004B00960000ED
:204660001400280100C8001E22002514640000000000000000000000003232329600001913
:20468000070F5A050000026464646464646401646464004B00000000002D50280078002F23
:2046A000542E007D002D500000780032324B0000002800000000000055F401900101374BD1
:2046C000000000FA00AC0D00000000320090015E01F40100000A64C8009001960000050F9F
:2046E00000010F0114004B3200005A140B00004B009600001400280100C8001E2200251440
:204700006400000000000000000000000032323296000019070F5A05000002646464646485
:20472000646401646464004B00000000002D50280078002F542E007D002D500000780032C7
:20474000324B0000002800000000000055F401900101374B000000FA00AC0D000000003271
:204760000090015E01F40100000A64C8009001960000050F00010F0114004B3200005A14D3
:204780000B00004B009600001400280100C8001E220025146400000000000000000000004B
:2047A0000032323296000019070F5A05000002646464646464640164640A00130001000892
:2047C0000045100A0001010000000000000A0000010000900100000900020100006E0A0157
:2047E000220122020000000000000000000000000000000000000000000000000000000072
:20480000000000000000000000000000000000000000000000000000000000000000000098
:20482000000000000000000000000000000000000000000000000000000000000000000078
:20484000000000000000000000000000000000000000000000000000000000000000000058
:20486000000000000000000042414E44312020200042414E44322020200042414E44332083
:2048800020200042414E44342020200042414E44352020200042414E443620202000424157
:2048A0004E44372020200042414E44382020200031323334353637383100320033003400B4
:2048C0003500360037003800000000000000000000000000000000000000000000000000FE
:2048E00000004C5630004C5631004C5632004C5633004C5634004C5635004C5636004C5643
:204900003700EA000C000400320003070707000000434343410046050064CE07CE07CE07E4
:20492000010000000000000000000000000032000307070700000043434341004605006473
:20494000CE07CE07CE070100000000000000000000000000320003070707000000434343C4
:20496000410046050064CE07CE07CE0701000000000000000000000000003200030707077D
:20498000000000434343410046050064CE07CE07CE070100000000000000000000000000DE
:2049A000320003070707000000434343410046050064CE07CE07CE07010000000000000074
:2049C000000000000000320003070707000000434343410046050064CE07CE07CE07010054
:2049E000000000000000000000000000110001020000000000000200000000000009000296
:204A0000020000000000760015000000000000000000000000000000000000000000000009
:204A2000000000000000000000000000000000000000000000000000000000000000000076
:204A4000000000000000000000000000000000000000000000000000000000000000000056
:204A600000000000000000000000000000000000000000000000000000000000070003002C
:204A800000000066002A00000000000000E803D007DC0564FF00000000E803D007DC056479
:204AA000FF00000000E803D007DC0564FF00000000E803D007DC0564FF00000000E803D030
:204AC00007DC0564FF00000000E803D007DC0564FF00000000E803D007DC0564FF0000007F
:204AE00000E803D007DC0564FF16002C000000E803D007E803D007E803D007E803D0077EE8
:204B000000290002000000000000000000000000000000000000000000000000000000006A
:204B2000000000000000000000000000000000000000000000000000000000000000000075
:204B4000000000000000000000000000000000000000000000000000000000000000000055
:204B6000000000000000000000000000000000000000000000000000000000000014001A07
:204B80000000007E05EA05B4053200E803D00700002A002B000000001E001E001E00050141
:204BA0001E011E011E011E011E011E011E011E011E011E011E011E011E011E160019020013
:204BC00000000000000000000000000000000000001200F6010200000000000100000002C7
:204BE00002000022001C0200000002011400003404000000008C0A01020100000000010089
:204C000000000000001C002800030000010102000000000000000000000000000000000049
:204C200000080004020100391807000F020000000C00F80103000101F401140008001000D1
:204C4000010000050B00190000000000280100460029020000000000000000000000000090
:204C6000000000000000000000000000000000000000000000000000000000000000000034
:204C80000000000000000000000000000000000000000000000A002C020000190019001A90
:204CA000000A02000000004A01B400D6010000C2010E01960044000000320125000200000C
:204CC0000000000000000000000000000000000000000000000000000000000000000000D4
:204CE0000000000000000000000000000000000000000000000000000000000000000000B4
:204D0000000000000000000000000000000000000000000000000000000000000000000093
:204D2000000000000000000000000000000000000000000000000000000000000000000073
:204D4000000000000000000000000000000000000000000000000000000000000000000053
:204D6000000000000000000000000000000000000000000000000000000000000000000033
:204D8000000000000000000000000000000000000000000000000000000000000000000013
:204DA0000000000000000000000000000000000000000000000000000000000000000000F3
:204DC0000000000000000000000000000000000000000000000000000000000000000000D3
:204DE00000000000000000000000004300030201000000000000000000000000000000006A
:204E0000000000000000000000000000000000000000000000000000000000000000000092
:204E200000000000000000000000000000011200020000000000000000000000000000005D
:204E40000A0028020000000000000A00270200000000000016001F020000FFFFFFFFFFFFBA
:204E6000FFFFFFFFFFFFFFFFFFFF42001A02000000000000000000000000000000000000DE
:204E8000000000000000000000000000000000004245464800424554414650564634303516
:204EA000000000000000000000000100090038000200000A07860004000000000000000013
:204EC0000000000000000000000000000000000000000000000000000000000000000000D2
:204EE0000000000000000000000000000000000000000000000000000000000000000000B2
:204F0000000000000000000000000000000000000000000000000000000000000000000091
:204F200000000000000000000000000000000000000000000000000000000012002B020032
:204F4000000000000000000000000000FF080007020000023C0C001D0200000000000000D8
:204F6000001800060201000000000020030000000020030000000020030B00390000000063
:204F8000000000000A00270000002003000043000B0202000000000000000000000000006B
:204FA0000000000000000000000000000000000000000000000000000000000000000000F1
:204FC00000000000000000000000000000010000001A000D020100000000000000000000A6
:204FE00000000000000000000000000C001E0200000000000000000700100200000000006C
:20500000DEAD0000FFFFFFFFFFFFFFFFFFFFFFFFFFFFFFFFFFFFFFFFFFFFFFFFFFFFFFFF21
:20502000FFFFFFFFFFFFFFFFFFFFFFFFFFFFFFFFFFFFFFFFFFFFFFFFFFFFFFFFFFFFFFFF90
:20504000FFFFFFFFFFFFFFFFFFFFFFFFFFFFFFFFFFFFFFFFFFFFFFFFFFFFFFFFFFFFFFFF70
:20506000FFFFFFFFFFFFFFFFFFFFFFFFFFFFFFFFFFFFFFFFFFFFFFFFFFFFFFFFFFFFFFFF50
:20508000FFFFFFFFFFFFFFFFFFFFFFFFFFFFFFFFFFFFFFFFFFFFFFFFFFFFFFFFFFFFFFFF30
:020000040800F2
:020000040800F2
:20800000F0B401292A4C2B4D23684FF0000694BF00270127EE626662A6626763676B47EA45
:2080200042076763EE63EC6B002A38D144F49574EC631C6824F001041C601C68E407FCD46A
:20804000490289085960D8601968EAB921F04001196019498B421DD018494FF47410C860F8
:20806000196841F01E011960596941F080015961196841F00101196022B90E4AD36A43F0B8
:208080000803D362F0BC704741F0400119600A498B42E1D14FF0746041F8500CE0E744F0DD
:2080A0001A04EC63EC6A44F00804EC62C1E700BF481E0020002C0140586402400064024071
:2080C0001148002302461178032902F1060216D00133062BF7D10D4AD36D052B0ED0591CFF
:2080E00003EB4303D16500EB4303032040F2EB3140F2FF32187059809A807047704703EB3A
:20810000430300EB4303F0E7801E0020481E002070B4C3080D4CE25C00F00706B24004EB69
:20812000D004D2B20020C6F108038B4228BF0B46C3F108052A419840C91A40EA02004FF0AE
:20814000000614F8012FEED170BC7047E81E0020084AD2E9553199420AD0D118013391F827
:208160005C110170C3F30A03C2F854310120704700207047481E0020064BD3F86009D3F89A
:208180005C29D3F85C39824298BF03F50063181A704700BF481E0020012380F85130704782
:2081A00007B501A8FFF7D4FF0028FAD09DF8040003B05DF804FB044BD3E95503984288BF7B
:2081C00003F50063181A7047481E002001207047024BC3F86429C3F868197047481E0020EF
:2081E000024BC3F86C29C3F870197047481E00207047704730B4134DD5E955239A4286BF58
:2082000003F50064A21A9A1A0A44B2F5006F13D8A9B101444A1E013810F8014FE9188242E6
:2082200003F1010381F85C41C3F30A03F4D1C5F85831002030BC7047022030BC704708468C
:20824000F8E700BF481E002041B370B5144C0144D4F860394E1E451E1A4604E0012045F06E
:20826000F9FBD4F86029D4F85C19531CC3F30A038B42F3D0D4F85C19B1F5006FEED094F812
:2082800074190029EAD115F8011FC4F860392244B54282F87819DFD1002070BD00207047AF
:2082A000481E002010B5094CD4F88030084611465BB1D4F88030052B07D1002AD4F88430C3
:2082C00003DDFFF7C1FFD4F8843010BD402F002010B590F85010002380F8503081B10B4CDB
:2082E000D4F8802072B1D4F88020052A0CD13C30D4F88430FFF7A8FFD4F88430012010BD80
:208300000120FCE71046FAE71846F8E7402F0020002280F85120DBE790F85020531C0244DC
:20832000DBB280F8503082F83C1090F851200AB1132B00D9CCE77047212838B50C4605D060
:2083400022282FD0202813D0002038BD0029FBD0072AF9D11A4BD3F8880093F88C1093F83B
:208360008D2093F88E30206021716271A371EBE70029E9D0072AE7D1124AD2F868391BB1DE
:20838000D2F86409096898470D4B256820796179A279C3F8885083F88C0083F88D1083F8B6
:2083A0008E20D1E70029CFD0022ACDD1054AD2F87039002BC8D00988D2F86C099847C3E7E7
:2083C000402F0020481E0020024B0020C3F88000704700BF402F0020054B064A00200521F5
:2083E000C2F88010C3F87009C3F86809704700BF481E0020402F0020704700BF704700BF5C
:20840000704700BF704700BF704700BF704700BF704700BF042301480B80704788010020B3
:2084200010B4074A074B92F89000122403F114020C8001280CBF184610465DF8044B7047EC
:20844000402F00208C01002000487047D01E002000487047D01E0020034B93F8840003283E
:2084600094BF002001207047481E0020034B93F88400032894BF002001207047481E0020D2
:20848000034B93F88400003818BF0120704700BF481E0020A0B182680D4B12B107229A70CA
:2084A00070471978DA6003294FF004000CBF80214FF48071C3E901111A611A7598707047A4
:2084C000034B41F2E47101225A545A70704700BF1CA100200378022B10D0006908B9012005
:2084E00070470C4B1B78032B0EBF0B4B80B24FF6F773984294BF002001207047054943688B
:2085000041F650028A58B3EB422F2CBF01200020704700BF1CA10020F7FFFF0F0378022BB6
:2085200014D030B4104A4368006941F6480402F5C2511559096841F63C042B4012595B0AE7
:20854000023801FB0030104430BC7047064B426841F6340141F630005958185800EB4100A3
:2085600000EB5220704700BF1CA100202DE9F84F494B98420ED003F56853083398424ED0BC
:20858000464B0020C3E94000A3F8FC00A3F80801BDE8F88F414C424FDFF810810223C4F870
:2085A000943004F198060025FB6AAB42294605F1010503D0D4F8180159F0F8FA94F81C31B6
:2085C000D4F8182186F8243032623046414659F001FDD4F894309D4206F13006E4DB00236E
:2085E00084F80A31D4E92803D4F89410B4F89C20B4F8A850C4F8283112FB01F203FB01F359
:20860000A4F8FC20B4F89E10264AA4F80851C4E94003A4F8FE10C4F8F8200120B8E71F4C4A
:208620001F4F0223C4F8943004F198054FF0000B4FF4806A4FF040094FF40068FA6A012660
:208640005A455946B34403D0D4F8180159F0AEFAD4F8181194F81C21296285F824204FF4EF
:2086600000314FF00062C5E90212A5F804A0A5F81090A5F80680AE74FFF722FD28466E763C
:2086800059F0F4FBD4F89420074B45F8303B9345D4DB84F80A61A5E71971EF00402F002026
:2086A0008801002074460708484607081940EF002DE9F04FD84DDFF89083DFF89CA307469C
:2086C0000E4693460FCD44462DED068B0FC40FCD0FC495E8070089B09AF82E31CDF808B0AF
:2086E00084E80700CDE90476042B00F26781DFE813F0D201650160010500E2019FEDC78AA5
:20870000DFEDC78AC749C8F81C10C749C74BC84AC8F818100299002918BF134638EE887A08
:20872000F5EE006A86EE87AAC24EDFF830B3C8F824300025DFEDC07A9FEDC09A28EE278A91
:20874000F0EE679A059BAB4200F02D811BF8013B0AEB030292F83341002C00F03481DFF820
:2087600000C3002202E0152A00F02D8102EB420157001CF80100A04202F10102F3D1514488
:2087800091F85111002900F084812046039344F037F8039B81464846039344F051F80178F2
:2087A000002940F01081039B57440133DBB2032287F8913187F89021B9F1000F00F0038112
:2087C0002709013F052F04F00F0000F24D819C4C04EB4701B1F884C04CFA00F111F00101EC
:2087E00000F04281012101FA00F0013800EA0C002744039369F044F997F89070DFF864C267
:20880000039B38440CEBC0070322FB71BA715CF83000776100F13F4303F57E0304EB9324D6
:20882000012194F8983099F8082003F01F045B09032B01FA04F100F01D81042B00F024811F
:20884000022B00F01C81BB880693B3FA83F3C3F11F03C3F3CC0100EB810103F007030C6A26
:208860009B000F279F4024EA07040C620C6A02FA03F323430B62022306A907930CF0B0FE6E
:20888000029B002B00F0AE80BAF82C3100EE103AB8EEC00AFCEEC07A17EE901AD9F8003067
:2088A000684A934200F09B80A2F58062934200F0968002F58042934200F0918002F580626A
:2088C000934200F08C8002F58062934200F08780DAF8BC2450084FF6FF73B0FBF1F21A4475
:2088E000120CB0FBF2F20298002800F08480B2FBF1F19AF82E0104288BB200F0828007EE75
:20890000902AF8EE676A66EE887A29EE677A9AF82F0104990091A8EEA67A0190494630465C
:20892000C6ED027A86ED037A37F0F8FC002D40F39D807368D8F83820934200F09980012D71
:2089400000F09480D8F85020934200F09180022D00F08C80D8F86820934200F08980032D7C
:2089600000F08480D8F88020934200F08180042D7CD0D8F8982093427AD0052D76D0D8F861
:20898000B020934274D0062D70D0D8F8C820D31A18BF012301350122082D3374727406F1C9
:2089A00018067FF4CFAE284809B0BDEC068BBDE8F08F9FED268AF0EE488AA3E69FED248A73
:2089C000F0EE488A9EE6234A194BC8F81C200020C8F8243009B0BDEC068BBDE8F08FDAF879
:2089E000BC0478E7B0EE4A0A6AF04AFAFCEEC07A17EE901A52E79AF82E01042819467FF4FD
:208A00007EAF07EE901A07EE102AF8EE677AF8EE476A67EEA97A78E7A0460708ACC5A737E2
:208A2000ACC5A73699CC030861A704082DC7030855A704083C0000106F12833A00007A4415
:208A4000484607080004014008000010282930386F12033925CA0308402F00207E3000204F
:208A600090300020FC300020716109E7012391E700238FE7114B1C6C21431964E3E60F4BEB
:208A80005C6C21435964DEE60C4B1C6B21431963D9E689467FE69FED0A8A0A4BC8F81830FB
:208AA0000023094A049301230293C8F81C20074BF0EE488A32E69FED068AEEE7003802406F
:208AC0006F12833A61A7040899CC030855A7040800000000F8B5104ED6F8BC440546006840
:208AE0000F4664080CF080FCB4FBF7F1B1F5803F03D3012CFAD96408F6E72246284689B211
:208B000043F032FC054BC6F8243D28460449BDE8F840002243F06CBB402F00201D4002087B
:208B2000643C002010B5044C04480A4621460BF09DFA204610BD00BF6C3C002014E007080E
:208B400010B5044C04480A4621460BF08FFA204610BD00BF6C3C002024E0070810B5044C97
:208B600004480A4621460BF081FA204610BD00BF6C3C002030E0070810B5044C04480A46F2
:208B800021460BF073FA204610BD00BF6C3C00203CE0070810B5044C04480A4621460BF00E
:208BA00065FA204610BD00BF6C3C002048E0070810B50D4C94F852210023C4F8803012B1F6
:208BC0000A4AC2F82C3E61F075FF20B10423022084F8843010BD054BD3F88430636709237C
:208BE00084F8843010BD00BF481E0020402F002070B50D4D95F88430042B04460E460AD03D
:208C0000082B06D1EB6F83420CD0FFF7D1FF022801D0012070BD0823C5E91F4685F88430D1
:208C2000022070BD022070BD481E002070B50379234C002B14BF0123002384F8B03003D18B
:208C4000002384F8843070BD1E4D002195F9332E032045F0DDFB0028F2D04668304645F0A6
:208C6000C5FB84F851010028EAD095F8313E003B18BF0123304684F8523162F0A9FE0BF0E9
:208C8000A3F938B994F8783084F88400013384F8783070BD61F0F8FF40B194F878300022FF
:208CA000013384F8783084F8842070BDD5F884306367012384F8780084F8843070BD00BF90
:208CC000481E0020402F002010B561F0DDFF58B10C4C94F878300133DBB2072B84F87830E1
:208CE00003D9002384F8843010BD0BF06DF90028F7D0054A0123D2F88420626784F884304E
:208D000010BD00BF481E0020402F00202DE9F041884C94F8B050002D00F0FA8094F8842044
:208D2000854E0227531E082B41D8DFE803F03739A0406A511540050061F0BCFE002840F0F8
:208D4000EE80636FD6F88420FA3393422CD2FFF7BBFF94F88420E5E761F0ACFE0028F0D0D2
:208D6000D4F880300022012B84F8782040F2DB80E16F94F85201013B0131C4E91F1310B14B
:208D80006D4BC3F82C2E082284F88420A2F10805B5FA85F56D092846BDE8F08184F8847089
:208DA00061F088FE002843D194F88420531EDBB2022B0AD8604B616FD3F884305B1AC82B01
:208DC000E4D9FFF781FF94F88420042ADED1E2E7236B002BDAD1584BE66ED3F884306367E6
:208DE000072284F88420002ED0D0D4E91821236F0120B047D8E7636FD6F8841064338B4265
:208E0000C4D2D4F82C80B8F1000FF4D161F052FE00289ED0E66E84F87880042384F8843071
:208E2000002E7AD0D4E91821236F4046B047BBE761F0E6FA0028B7D196F8353E002BA3F172
:208E40000203B3FA83F314BF022201225B0984F8792084F87A3061F0D3FA00287FF477AF52
:208E6000364A0323926CC4F8882084F8843061F0C7FA002898D1304BC4F8800093F8646E03
:208E8000B3F8660ED3F868EED3F868CED3F8687ED3F8682E84F88E6093F86C1EA4F88C00D8
:208EA00093F86D6E84F8922093F86D0ED3F8702EC4F89420B3F8768EB3F8762E84F8931022
:208EC000B3F8761EC2F30B1343EA182303F00F0301F00F024FEA1E6E4FEA1C4C3F0A360923
:208EE00000F00F0003F5FA63042184F8990084F88FE084F890C084F8917084F89860A4F8A0
:208F00009A3084F89C2084F884102846BDE8F08184F884502846BDE8F08105463BE7042353
:208F200084F8843037E7FAD1FFF742FE94F88420531E3CE7481E0020402F0020783D002034
:208F40002DE9F84FBA4C94F8901E0546C1F34001D4F8980E48F046FC94F8901ED4F8940EA0
:208F6000C94301F0010148F03DFC002D00F0CD806E1EB04FB04D5FFA86FB4FF01008D4F892
:208F8000980E48F095FAD4F8940E48F091FAB4F8A03E002B40F0438194F8A21ED4F8A40EC0
:208FA00048F020FC4FF0FA094FF47A704FF0010C7B68C3F30803002B40F00881EFF31183A4
:208FC000002B40F00381D4F88420A968D4F884309A42F8D1D4F8C83E9942F4D8D4F8C46E95
:208FE00000FB06F35B1AB3FBF6F300FB02327B68C3F30803002B40F0A880EFF31183002B7A
:2090000040F0A380D4F88430D5F808A0D4F884108B42F7D1D4F8C81E8A45F3D8D4F8C46EC9
:2090200000FB06F1A1EB0A01B1FBF6F100FB03139B1AB3F57A7FDAD3B9F10109B8D1D4F8F7
:20904000980E48F035FAD4F8940E48F031FAB4F8A03E002B40F0D78094F8A21ED4F8A40E2C
:2090600081F0010148F0BEFB4FF0FA0C4FF47A704FF0010E7B68C3F30803002B40F08680C7
:20908000EFF31183002B40F08180D4F88420A968D4F884309A42F8D1D4F8C83E9942F4D8DF
:2090A000D4F8C49E00FB09F35B1AB3FBF9F300FB02327B68C3F308034BBBEFF3118333BB3F
:2090C000D4F88430D5F808A0D4F884108B42F7D1D4F8C81E8A45F3D8D4F8C49E00FB09F137
:2090E000A1EB0A01B1FBF9F100FB03139B1AB3F57A7FDED3BCF1010CBCD10BF1FF365FFA5A
:2091000086FBBBF1FF0F7FF43AAFBDE8F88FEFF3118988F31288AE682B68DB0344BFC4F8B5
:20912000C0EEAE68D4F88430D4F8C01E5FFA89F989F31188D4F8C49E0B4400FB09F1891B3B
:20914000B1FBF9F100FB0313D0E7EFF3118E88F31288D5F808A02B68D90344BFC4F8C0CEEA
:20916000D5F808A0D4F88430D4F8C01E5FFA8EFE8EF31188D4F8C46E0B4400FB06F1A1EB86
:209180000A01B1FBF6F100FB031351E7EFF3118188F31288D5F808902B68DA0344BFC4F8CB
:2091A000C0EED5F80890D4F88430D4F8C02EC9B281F31188D4F8C41E1A4400FB01F3A3EB51
:2091C0000903B3FBF1F300FB023272E7EFF3118188F31288AE682B68DB0344BFC4F8C0CE0C
:2091E000AE68D4F88430D4F8C02EC9B281F31188D4F8C41E1A4400FB01F39B1BB3FBF1F354
:2092000000FB0232F3E6D4F8BC3E002B3FF42CAFD4F8A83EC3F8009084F8B99E24E7D4F8A0
:20922000BC3E002B3FF4BEAE44F0D8FCBAE600BF402F002000ED00E010E000E02DE9F84F7A
:20924000B74CB84F94F8901ED4F8980EB64DC1F3400148F0C7FA94F8901ED4F8940EC943B3
:2092600001F0010148F0BEFA4FF0050B4FF01008D4F8980E48F01CF9D4F8940E48F018F9EF
:20928000B4F8A03E002B40F0438194F8A21ED4F8A40E48F0A7FA32264FF47A704FF0010CB1
:2092A0007B68C3F30803002B40F00781EFF31183002B40F00281D4F88420A968D4F88430D2
:2092C0009A42F8D1D4F8C83E9942F4D8D4F8C4EE00FB0EF35B1AB3FBFEF300FB02327B68D0
:2092E000C3F30803002B40F0A780EFF31183002B40F0A280D4F88430D5F808A0D4F88410E3
:209300008B42F7D1D4F8C81E8A45F3D8D4F8C4EE00FB0EF1A1EB0A01B1FBFEF100FB0313B1
:209320009B1AB3F57A7FDAD3013EB9D1D4F8980E48F0BEF8D4F8940E48F0BAF8B4F8A03E1F
:20934000002B40F0DA8094F8A21ED4F8A40E81F0010148F047FA4FF0320C4FF47A700126D1
:209360007B68C3F30803002B40F08780EFF31183002B40F08280D4F88420A968D4F8843013
:209380009A42F8D1D4F8C83E9942F4D8D4F8C49E00FB09F35B1AB3FBF9F300FB02327B6869
:2093A000C3F308033BBBEFF3118323BBD4F88430D5F808A0D4F884108B42F7D1D4F8C81E06
:2093C0008A45F3D8D4F8C49E00FB09F1A1EB0A01B1FBF9F100FB03139B1AB3F57A7FDED38B
:2093E000BCF1010CBCD10BF1FF3616F0FF0B7FF43FAFBDE8F88FEFF3118988F31288D5F8FA
:2094000008A02B68DB0344BFC4F8C06ED5F808A0D4F88430D4F8C01E5FFA89F989F31188B7
:20942000D4F8C49E0B4400FB09F1A1EB0A01B1FBF9F100FB0313CFE7EFF3118E88F3128830
:20944000D5F808A02B68D90344BFC4F8C0CED5F808A0D4F88430D4F8C01E5FFA8EFE8EF3D6
:209460001188D4F8C4EE0B4400FB0EF1A1EB0A01B1FBFEF100FB031352E7EFF3118188F321
:209480001288D5F808902B68DA0344BFC4F8C06ED5F80890D4F88430D4F8C02EC9B281F3E2
:2094A0001188D4F8C41E1A4400FB01F3A3EB0903B3FBF1F300FB023271E7EFF3118188F376
:2094C0001288D5F808E02B68DB0344BFC4F8C0CED5F808E0D4F88430D4F8C02EC9B281F3A1
:2094E0001188D4F8C41E1A4400FB01F3A3EB0E03B3FBF1F300FB0232F1E6D4F8BC3E002BB0
:209500003FF429AFD4F8A83E1E6084F8B96E22E7D4F8BC3E002B3FF4BEAE44F05FFBBAE6A6
:20952000402F002000ED00E010E000E000F01F0240090123032803FA02F304D004280CD088
:20954000022805D07047074A116C0B4313647047044A516C0B4353647047024A116B0B432E
:20956000136370470038024000285FD00368374A2DE9F04103F13F4404F57E0402EB942225
:20958000012492F8982002F01F055209032A04FA05F456D0042A4FD0022A48D08588B5FA5C
:2095A00085F0C0F11F00C0F3CC0603EB860600F0070082000F24306A944020EA04003062AD
:2095C000306A01FA02F20243002132624FF0010E0A464FF0030C02270EFA02F838EA0500CA
:2095E00002F101021CD118680CFA01F420EA04001860186807FA01F606431E609E6826EA32
:2096000004069E6098689860586820EA0800586058685860D86820EA0400D860D868D8604A
:20962000102A01F10201D7D1BDE8F0817047084A556C2C435464B1E7054A156B2C431463FF
:20964000ACE7034A156C2C431464A7E74846070800380240134B0268196821EA020119604D
:20966000596821EA0201596019680A431A609968026821EA02019960D96821EA0201D96020
:209680004179102907D001F1804303F59E3319680A431A607047996811439960D9680A43A7
:2096A000DA607047003C014000286BD0F0B58388B3FA83F3202B85B00446C3F11F024CD04B
:2096C000314D32484FF00041104405EB820205F60C7731FA03F390F8A060C2F8CC7E05D04A
:2096E0002B4A116821EA0301116053612046002143F0E8FAA3882268B3FA83F4C4F11F03FC
:2097000003F0FC0101F1804101F59C3103F0030398000F2702F13F438A68874022EA0702D9
:2097200003F57E038A60C3F38723834088684FF000420343354422FA04F48B604FF440628F
:20974000012302A88DF80E300294ADF80C20FFF781FF95F8103FF02B01D805B0F0BD0D4B11
:209760009B5D8DF80430F02103224FF4807301A885F8101F8DF80520ADF806300BF0E6FC15
:2097800005B0F0BD704700BF402F002048460708003C0140C8E00708002869D0F0B5838880
:2097A000B3FA83F3202B85B00446C3F11F024AD0304E314D16444FF0004005EB820230FA5A
:2097C00003F396F8A060C2F8CC1E05D02B4A116821EA0301116053612046002143F072FA44
:2097E000A3882268B3FA83F4C4F11F0303F0FC0101F1804101F59C3103F0030398000F278C
:2098000002F13F438A68874022EA070203F57E038A60C3F38723834088684FF000420343C8
:20982000354422FA04F48B604FF40062012302A88DF80E300294ADF80C20FFF70BFF95F886
:20984000103FF02B01D805B0F0BD0D4B9B5D8DF80430F02103224FF4807301A885F8101F99
:209860008DF80520ADF806300BF070FC05B0F0BD704700BF48460708402F0020003C01407B
:20988000C8E00708034BD3F8B820136A002BFCD1704700BF481E002030B5134A134B8DB0D2
:2098A000082102F1B80082F850110693694400230DF107050124CDE9073302938DF8143013
:2098C00009938DF828300B93CDE903544AF056FBFFF7D8FF9DF80700A0F1FF00B0FA80F0C6
:2098E00040090DB030BD00BF481E00201916010870B51C4D90B00024FD220DF1030305F1ED
:20990000B800012601A98DF803200693CDE90144CDE90A44CDE90C44C5F880408DF8104026
:20992000059407948DF824408DF838400F94039608964AF023FBFFF7A5FF30460AF0FAFADD
:20994000FF2809D0084BD3F884306B672046092385F8843010B070BD0423022085F8843039
:2099600010B070BD481E0020402F0020F0B50379284C002B14BF012200228BB084F8B02086
:2099800003D184F884300BB0F0BD054604F1B80795F9001038464AF061FCAD786DBB1E4BF3
:2099A0001E48C4F84C310126C4F8C05084F8C4604AF08AFC03464FF47A70A4F8BC3044F083
:2099C00049F8D4F8C00047F007FF2822684600216AF0E9FD0A236946384602934AF0CEFA33
:2099E000FFF750FF0E4B84F88460D3F884306367002384F878300BB0F0BD284647F0A0FA32
:209A0000054608B11E23C3800921284643F036FBC5E700BF481E0020A81E0020801A06004B
:209A2000402F002070B5064690B008200D460AF081FAFF2821D0FE2802D0022010B070BDD7
:209A4000002402230E48089301A9CDE90265CDE90544CDE90A44CDE90C4401948DF8104092
:209A600007948DF824408DF838400F944AF086FAFFF708FF204610B070BD012010B070BDAA
:209A8000001F002030B593B040F040020B0E0D0C04468DF80810080A8DF80420952101AAB8
:209AA0008DF805308DF80650002306258DF807008DF809100DF1030001210392134A0493ED
:209AC000CDE90733CDE90D33CDE909018DF818308DF82C300F938DF84030119305950C92BF
:209AE000FFF7DAFE00B974B9094B082203F1B80003A983F850214AF041FAFFF7C3FE9DF82F
:209B0000030013B030BDFF2013B030BDF1150108481E00202DE9F8431A4C94F88460042ED5
:209B20000546894690461F4608D0082E02D00020BDE8F883FFF7DCFE0228F8D1D4F8C00061
:209B400047F044FE94F87A309BB969021120FFF799FFA0B90C4BC4F86090D3F88420656642
:209B60000523C4E91B87626784F884300120BDE8F88329461120FFF785FF0028EAD00AF03E
:209B8000FFF9D4E7481E0020402F002070B51E4C94F88430042B06460D4608D0082B22D162
:209BA000E36F83422DD0FFF7A3FE02281BD1D4F8C00047F00BFE00213720FFF763FF2946D9
:209BC0001720FFF75FFFB0B994F87A306BB971021920FFF757FF70B90823C4E91F6584F83E
:209BE0008430022070BD012070BD31461920FFF749FF0028F0D00AF0C3F90AF0F7F903207B
:209C000070BD022070BD00BF481E00202DE9F0412D4C0546884617461E4694F884000428AD
:209C200036D0082806D1E36FAB4206D0FFF760FE0228F2D00120BDE8F0814FF0FC0CD4F878
:209C4000B8202248117B224B80F817CFC3F8588051B1526942B194F84021002A0CBF4FF403
:209C600080724FF4007201E04FF480721A66194919484AF083F901220623C4E91885C4E9EB
:209C80001B7684F8682084F884300020BDE8F081D4F8C00047F09AFD94F87A305BB96902BA
:209CA0001820FFF7EFFE40B994F88430082BC4D04FF0FE0CC3E72946F2E70AF061F90AF000
:209CC00095F90320B7E700BF481E0020402F002088010020B8010020001F00202DE9F04F4B
:209CE000D14C94F8B06095B0002E00F0978194F88420CE4F04F1B80804F1A009531E082BEC
:209D000000F2A180DFE813F0370060002F019F008E00B1001A009F000900FFF7BDFD002827
:209D200040F03982636FD7F88420FA33934280F087800AF05BF994F88420DFE7FFF7ACFD97
:209D40000028EFD0D4F880300022012B84F8782040F23782E26F013B511CC4E91F13082250
:209D600084F88420A2F10806B6FA86F67609304615B0BDE8F08FD4F8C00047F027FD002110
:209D80000846FFF77FFE05460AF0FAF8012D57D1D4F8C0004FF0000A84F879A047F016FDC1
:209DA00040F2AB110820FFF76DFE052800F08F81012800F056810AF0E3F894F87920002AEB
:209DC000CED0022384F88430D4F8C00047F0FEFC94F87930022B0CBF4FF08045002500215C
:209DE0003720FFF74FFE29462920FFF74BFE05460AF0C6F825BB94F87930022B00F07C81A0
:209E000084F87A50D4F8C00047F0E0FC00210920FFF738FE002875D00AF0B2F894F88420A6
:209E2000531E10E0206E4FF40071FFF7FBFD012800F03581022800F03981002800F04A810B
:209E400094F88420531EDBB2022B0AD8774B616FD3F884305B1AC82B84D90AF0C7F894F8AA
:209E60008420042A7FF47EAF81E7D4F8B820117B136A002900F0DE805269002A00F0DA80B5
:209E800094F84021002A00F0D580B3FA83F35B09002BD5D004A900250DF10F030222059173
:209EA000404605A94FF0010ACDE90B3A0792CDE90955CDE90E55CDE91055ADF810500695A8
:209EC0008DF820508DF834508DF8485013954AF055F8FFF7D7FC9DF80F3003F01F03052B56
:209EE00000F062810AF082F8D4F86CB0BBF1000F00F0EA802A46236F616E5046D84794F80C
:209F00008420FBE610214846FFF78CFD8246002882D101217F20FEF7FBF8012805467FF4AB
:209F20007BAF50460221FEF7F3F8002800F0148101287FF471AF16213A20FEF7E9F801305D
:209F40008002C4F888000AF01BF8D4F8C00047F03DFC00210A20FFF795FD002840F0F58092
:209F6000032384F88430102105A8FFF75BFD00287FF466AF9DF821309DF822109DF81C2031
:209F80009DF815009DF816501B01DBB243EA111303F5FA63A4F89A30DDF81D3001F00F0144
:209FA00084F89C101BBA110902F00F0245EA002084F8981084F899209DF814109DF817205A
:209FC000C4F89430069BC4F89030A4F88C0084F88E1084F88F2009F0D3FF94F87A3073B94A
:209FE000D4F8C00047F0F2FB4FF400711020FFF749FD054609F0C4FF002D7FF49AAE0C484E
:020000040800F2
:20A000004AF062F900220423A4F8BC003046C4F8802084F8843015B0BDE8F08F304684F82D
:20A02000846015B0BDE8F08F481E0020402F002040787D01236E94F868106A4803EB0121B1
:20A0400000224FF480734AF05FFB94F868300133DBB284F86830A3F10203B3FA83F35B09FB
:20A0600016E7042304AA5F48079305A90692CDE909AACDE90BAACDF814A08DF820A08DF870
:20A0800034A0CDF838A049F079FFFFF7FBFB9DF81330AB2B04BF022384F879308BE6636FB4
:20A0A000D7F8842064339342BFF4CAAE09F068FF09F09CFFE56E3DB100221046236F616E88
:20A0C000A84794F8842019E694F8842016E684F8795070E6019009F053FFE56E019884F857
:20A0E0007800042384F88430002D3FF440AED4E91821236FA847A3E6D4F8C00047F066FB1F
:20A1000029463A20FFF7BEFC04AA8246042305A9404606920793CDE90955CDE90B550595FF
:20A120008DF820508DF834500E9549F027FFFFF7A9FBBAF1000F08D109F022FF049B1BBA64
:20A14000C3F3807384F87A305CE609F019FF09F04DFF94F88420D1E504212C20FDF7D8FF76
:20A16000032182464E20FDF7D3FF0C2183463620FDF7CEFF0BF1020B421C02FA0BF205FA53
:20A180000AF5A2FB0501420A42EAC152C4F8882009F0F6FED9E6019009F0F2FE0198042348
:20A1A000064684F88430E2E50F4BE56ED3F884306367072284F88420002D3FF4D3AD5046A7
:20A1C00095E708D0042384F8843009F0D9FE94F88420531E37E6FFF78BFB02287FF430AE4F
:20A1E0001AE600BF001F0020402F002010B4B8B10D4CD4F8183F102B05D15DF8044B05214E
:20A20000002043F087B803EB4302224482F81D1F01210B4482F81C0F82F81E1FC4F8183F7D
:20A220005DF8044B704700BF402F002080782021DCE700BF2DE9F04FDFF8ACA32DED028B98
:20A240009AF8601F002297B0CAF8502FCAF8542FCAF8582FCAF85C2FCAF84C2F19B19AF8CF
:20A26000612F8AF84C2F9AF8622F1AB19AF8632F8AF85B2F9AF8662F1AB19AF8672F8AF897
:20A28000562F9AF8642F1AB19AF8652F8AF8512F9AF8683F05935A1ED3B257B203937B1C1D
:20A2A00000F0AA80C54AC64E52F83790029602EBC70200231279019308EE102A1D463446B3
:20A2C00098462678394630464AF060FD83463046BBF1000F1ED046F033FEEA1D1321D2B268
:20A2E00020B14FF0000E827180F807E042F0C6FE20784AF07DFD4FF0070308F101022371D3
:20A300004FF0010384F802806070CDF804B05FFA82F8E3700135042D04F10504D1D118EE80
:20A32000100A029ECDF81080FFF700F9A549A64A4868024042F440324A600FB9019B5BB985
:20A34000A24C4820FFF7F2F82046022166F09AFBA26842F00102A2609A489C4A4168BAF8EF
:20A360006A4F41F400014160516821F480515160916B21F4401141F480119163D16841F473
:20A380006001D160956B85F44011C1F3015101EB81011F2000FA01FC25EA0C0C112505FA5B
:20A3A00001F141EA0C019163D16841F4E011D160956BC5F30151C1F10401C9B201EB810145
:20A3C00088404FF0100C25EA00000CFA01F108439063E4B1BAF86C1FCAF8744FA1B1BAF8BA
:20A3E0006E2FCAF8781F62B1019B7948521A90FBF2F2CAF87C2F6BB917B0BDEC028BBDE8E9
:20A40000F08F744A1288EFE7734A1188E7E7734A1488DFE74846049966F034FB684B0120C8
:20A4200003F114080723F278441CE4B252B375783279A5F10A0101EB410105EB450C092D9F
:20A4400003FA01FE03FA0CFB02FA01F140F2A080D9F80C2022EA0E0E41EA0E01C9F80C1080
:20A46000421E02EB82021F21062801FA02FC05FA02F273D8D9F8341021EA0C010A43204686
:20A48000C9F834200536B045CDD1D9F80820039942F40072C9F80820D9F8082042F4807292
:20A4A000C9F80820D9F80820574442F00102C9F8082097F9702F022043F0AAFF0446002862
:20A4C0009AD04668304643F091FF454A431E242101FB032393F89C50002D8DD1059983F8B9
:20A4E0009D10062283F89C20002885D0304643F07DFF61F099F960680AF0D0FE07A80AF092
:20A500008FFE049EA26837480792012E8CBF4FF4806300230D9309F14C034FF48072CDE953
:20A520000A56089309904FF4003360680C9507A94FF400674FF40056CDE91023CDE90E7692
:20A540000AF080FE6268136843F001031360D9F8083043F08043C9F808304DE7C11FA0F1F7
:20A560000D0201EB81014FF01F0E02EB82020C280EFA01FC0EFA02F005FA01F113D8D9F8A1
:20A58000302022EA0C0211432046C9F8301079E7D9F8101002FA0CF221EA0B0B42EA0B02F1
:20A5A000C9F810205CE7D9F82C1005FA02F221EA00010A432046C9F82C2063E7F846070804
:20A5C0008C3E002000230140E030FCFF00200140803801002E7AFF1F2C7AFF1F2A7AFF1FBC
:20A5E00088010020C03E0020402F00202DE9F0472E4C054600EB800004EBC004D4F88C7FFE
:20A600002FB10E4694F8A11F01F0FF0821B14FF000084046BDE8F0879946924643F0EEF936
:20A6200071000123C9B284F8A21F84F8A3AF84F8A53F84F8A68F84F8A43F84F8A13F84F8B7
:20A64000A08FBA88C4F8A89F91050646C4F8AC9F1CD43B88DA050FD442F20F7404E043F05A
:20A66000CDF9831BA34215DC3B889B05F7D43B889BB243F480733B80BB889BB243F4407303
:20A680004FF00108BB804046BDE8F08798464046BDE8F087064A32F8F83C01339BB2284678
:20A6A00022F8F83C65F010FDB3E700BF402F00203840002070B5464E16F8F64C04EB44032B
:20A6C00006EBC303650013F8F43C032B6ED8DFE803F059291E02254406EBC50555F8F00CE6
:20A6E000002870D116F8943C9C425FD0013404F00302934206F8F62C58D002EB420406EB97
:20A70000C404022344F8F00C04F8F43C70BD2B1906EBC30353F8F02C72B1013A43F8F02CA4
:20A72000002070BD2B1906EBC30353F8F02C002AF3D1022203F8F42C254406EBC50515F80C
:20A74000E83C013BDBB205F8E83C8BBB214B16F8946CD3F8C01255F8EC0C621C02F00302D4
:20A760004B1E0324B242034405F8F44CB3FBF1F045F8F00C1AD0994218D8013845F8F00CE2
:20A78000012070BD4AF0F8F980B1124B2C44D3F8C02206EBC404012102F51C5304F8F41C48
:20A7A0000F33B3FBF2F344F8F03C70BD012070BD084BD3F8C022012002F2E733B3FBF2F31F
:20A7C00045F8F03C70BD013845F8F00C002070BD3840002088010020054B13F8932C002A9F
:20A7E000FBD1D3F8D03A03491B6801F10C00184738400020A83F00202DE9F84F3249DFF83E
:20A80000D4B091F8351E01240229074619461046CBF82C404FF000022C4C1D4618BF7F02E3
:20A82000FDF7EEFB2A4B63626B02A362E36A40F2FF5943F093034FF400704FF48A62E362C8
:20A840000121C4F83890A0601020E2605FF024FF012D40F251434E46C4F83890CA4640F220
:20A8600052488EBF4FF0120998464FF011090A25C4F838A00121A7604846C4F80C805FF04F
:20A880000BFF03464FF0000C40F2774201213720A6632BB900231846CBF82830BDE8F88F01
:20A8A000A663C4F808C0E2605FF0F6FE013DA6630028EFD015F0FF05DAD10346CBF82C501C
:20A8C000CBF82830BDE8F88F402F0020002C014000E1F505481E00202DE9F843DFF87480B8
:20A8E00098F88450042D0446894617461E4608D0082D02D00020BDE8F883FEF759F9022859
:20A90000F8D101234A4620460021FFF775FF68B1FEF7DAF9D8F86C40002CEBD00022D8F893
:20A920007030D8F864101046A047E3E7084BC8F86090D3F88420C8F864400523C8E91B76EC
:20A94000C8F8742088F884300120BDE8F88300BF402F0020481E00202DE9F84F2F49DFF8AE
:20A96000C49091F8351E1E4602292D4B07464FF0010418BF4702012E40F259481C6398BF17
:20A980004FF48B683B469346474640F2FF55B0468CBF4FF0190A4FF0180A0A241E4640F24C
:20A9A000FF53C9F838300121C9F808605046C9F80C705FF071FE03464FF0000C40F27742C1
:20A9C00001213720C9F83850A3B9584641460122FDF716FB4646134A134B536276029662A0
:20A9E000D36A43F09103D3620D4B002108469962BDE8F88FC9F83850C9F808C0C9F80C2071
:20AA00005FF04AFE013CC9F838500028DDD014F0FF04C4D1024B1C63BDE8F88F402F002021
:20AA2000481E0020002C014000E1F5052DE9F047374C82B005460E461746984694F884005C
:20AA400004280CD0082806D1E36FAB4207D0FEF7AFF80228F2D0012002B0BDE8F087DFF883
:20AA6000B8A02666DAF82C9E6566C9F34F210F294FEA592223D8D4F880300193FBB194F830
:20AA80005201E0B1B9F5005F13D0224831464FF40072484469F026FD09F50072C2F34F21AF
:20AAA0001029CAF82C2E4FEA522202D0019B012B21D192B2013A174EAD1A0B4600E0012308
:20AAC00032462846062601250021E766C4F8708084F8685084F88460FFF73EFF0028BBD0AA
:20AAE000FEF7F2F8E66E86B12846236F616E0022B0470320B0E7E26F013B01320421C4E9B8
:20AB00001F2384F884100220A6E70320A4E700BF481E00201C710020402F002003681A7808
:20AB2000012A01D00020704793F90430044A03EB830302EBC30393F8A10FC0B2704700BFEA
:20AB4000402F0020F0B53B4CD4F8D45A2B78022B95B018D0012B02D0002015B0F0BD95F925
:20AB600004506B1CF8D0022DF6DC0091134694F8D81A0246284665F049FC0028ECD0284627
:20AB800065F0F4FCE9E72B6A002BE5D10DF10F0C8DF80F00002601200027CDE90833CDE968
:20ABA0000A12CDE90E6705938DF81C300D9310931293CDF810C006908DF830008DF8440054
:20ABC000EFF31180102383F31288D4F8D43A1B6A13B3069B04AE32461BB1D3691432002B56
:20ABE000FBD12B6A13B3996839B993420AD0196829B15B6899680029F7D01433F3E70E4A04
:20AC0000C3E90026C0B280F31188D4F8D42A136A002BFCD10120A0E704ABC0B22B6280F3DC
:20AC2000118804F6D42062F051F9EEE7024A1A60FFDE00BF384000200C4B002070B503681B
:20AC40001D78022D14D0012D01D0002070BD044693F904000A4B421C83F8A05BF5D002280E
:20AC6000F3DC0A4603F53A632179BDE87040BDE41B6A002BE9D1012249F0A6FC012070BDDA
:20AC80003840002010B50C4CD4F8D43A1B78022B10D1D4F8DC0A46F09FFDD4F8DC0A08B195
:20ACA0002123C380012142F0E9F9044849F00CFBA4F8D80A10BD00BF3840002080969800FB
:20ACC00030B583B00D46012301460DF107020446074849F0E9FD9DF8072035EA020304D02B
:20ACE00003482A43214649F075FE03B030BD00BF0C4B002038B505460A460C46064829461C
:20AD000049F062FC45F08001034849F007FB231A5842584138BD00BF0C4B002013B53A4C77
:20AD20000023D4F8B02B8DF80730137803F0FD01012905D194F8B41B11B90C2184F8B41B74
:20AD4000022B1ED0032B2ED001220B212F485DF05FFC042042F07EFE2C4801230DF10702CD
:20AD600000215DF077FC002839D09DF80730482B35D1274BC4F8A43B264BC4F8A83B02B0AD
:20AD800010BDD4F8B80B46F027FDD4F8B80B08B13523C380012142F071F91F4849F094FA2E
:20ADA000A4F8B40BD0E71D4B50681B6846F2A8111961002380F88830122237215DF0FCFB50
:20ADC000D4F8B03B0D22586824215DF0F5FBD4F8B03B302258686A215DF0EEFBB4E7D4F85A
:20ADE000B03B1A78022A03D0032A07D00020C6E7D4F8B80B48F01AFA0020C0E75868102272
:20AE000037215DF0D9FBF1E738400020E84B0020B38606083587060880969800985000202F
:20AE20002DE9F04FB64CB74E95B0002305464FF4F0728B4604F56B70202184F8A83384F8A5
:20AE4000A933019569F0AFFB202104F28C504FF4F07269F0A8FBDFF8C4C2AB4932274FF0E0
:20AE6000100E4FF47A704FF00108DCF80430C3F30803002B40F0BC80EFF31183002B40F00E
:20AE8000B780D6F884208D68D6F884309A42F8D1D6F8C83E9D42F4D8D6F8C49E00FB09F347
:20AEA0005B1BB3FBF9F300FB0232DCF80430C3F30803002B7BD1EFF31183002B77D1D6F85C
:20AEC0008430D1F808A0D6F88450AB42F7D1D6F8C85EAA45F3D8D6F8C49E00FB09F5A5EB8F
:20AEE0000A05B5FBF9F500FB03539B1AB3F57A7FDBD3013FB9D194F86D27002A52D094F88E
:20AF00006E37013B022B4DD803EB830104EBC1007E4D90F8707705EBC1014FF0010C022F73
:20AF2000C4F8E81784F870C800F0C382DBB204EB0313D3F88038C0F874379BB302234FF43F
:20AF4000807780F8703705F18803C435A0F87C77C0F88837C0F88C571509013D052D02F044
:20AF60000F0200F289826A4F07EB4503B3F8840040FA02F3DB0740F17F82012303FA02F249
:20AF8000013A10403D4466F07BFD95F89020614B104403EBC000C4F8F0078379002B47D0FB
:20AFA000412B45D06FF0010015B0BDE8F08FEFF311898EF31288D1F808A00B68DD0344BF69
:20AFC000C6F8C08ED1F808A0D6F88430D6F8C05E5FFA89F989F31188D6F8C49E2B4400FBFC
:20AFE00009F5A5EB0A05B5FBF9F500FB03537CE7EFF311858EF31288D1F808900B68DB031D
:20B0000044BFC6F8C08ED1F80890D6F88430D6F8C02EEDB285F31188D6F8C45E1A4400FB89
:20B0200005F3A3EB0903B3FBF5F300FB02323CE72323C380092141F045FED4F8F037002B51
:20B0400000F065821A68D4F8E8179B881383D6F8BC24314BB3EB920F80F03182B3EBD20F08
:20B0600080F02F82B3EB121F80F02F82B3EB521F80F02F82B3EB921F80F02F82B3EBD21F90
:20B0800080F02F82B3EB122F80F02D824FF480720023FF200DF10F08A4F8EC270122CDE97D
:20B0A0000483CDE90833CDE90A338DF80F000D9306928DF81C208DF83020EFF3118010231D
:20B0C00083F31288D4F8E8371B6A002B00F0D881069B04AD2A461BB1D3691432002BFBD175
:20B0E0000B6A002B00F01C82996839B99A421AD01968A9B15B6899680029F7D01433F3E7B9
:20B1000030510020402F002010E000E0A058002048460708FC300020404B4C0000ED00E08A
:20B12000B74AC3E90025C0B280F31188D4F8E8170B6A002BFCD18C220120CDE908330DF1C9
:20B140000E0A05938DF81C300D93109312938DF80E2000230022CDE90E23CDF82880CDF875
:20B1600010A006900B908DF830008DF84400EFF31180102383F31288D4F8E8371B6A002B1F
:20B1800000F08781069B2A461BB1D3691432002BFBD10B6A002B00F0C381996839B99A42BE
:20B1A0000AD0196829B15B6899680029F7D01433F3E7934AC3E90025C0B280F31188D4F88D
:20B1C000E827136A002BFCD19DF80F301B2B40F09081D4F8F037012284F8A8230BB1232232
:20B1E000DA80DFF81C92402248460A2149F0ECF98A21002301228DF80E1000200021CDE9AC
:20B200000E01CDE90833D4F8E817CDF810A0CDF8288005938DF81C300D9310931293069298
:20B220000B928DF830208DF84420EFF31180102383F31288D4F8E8371B6A002B00F03181C0
:20B24000069B2A461BB1D3691432002BFBD10B6A002B00F06281996839B99A4209D01968FC
:20B2600029B15B6899680029F7D01433F3E7C3E90095C0B280F31188D4F8E827136A002BDD
:20B28000FCD19DF80F2094F86C17C2F3801284F8B028002900F0D480022900F0B980D6F8E4
:20B2A000BC345849B1EB930F80F01F81B1EBD30F80F00981B1EB131F80F00981B1EB531F61
:20B2C00080F00981B1EB931F80F00981B1EBD31F80F00D81B1EB132F34BF4FF480768026F0
:20B2E00094F8B418A4F8B268182914D1464F474800215B08B3FBF6F3A7FB03730F465B0B08
:20B3000066F30F076BF30F0163F31F4762F31F41C4F8B81847603A48A4F8EC6702220021F6
:20B3200049F052F9C82042F03DF9D4F8E8074FF0800B0026002700230122CDE90E67CDE940
:20B3400008338DF80EB0CDF810A0CDF8288005938DF81C300D931093129306920B928DF882
:20B3600030208DF84420EFF31182102383F31288D4F8E8371B6A002B38D0069B002B3DD060
:20B380002B46D96914330029FBD1006A002800F0C180816839B9834209D0016829B1406897
:20B3A00081680029F7D01430F3E7C0E90095D2B282F31188D4F8E807036A002BFCD19DF811
:20B3C0000F3013F00203B6D1019841788278007884F8C008C1F12001C2F11002184684F825
:20B3E000C11884F8C22815B0BDE8F08F0562D2B282F31188024861F069FDDBE72B46C4E74D
:20B4000018590020809698005917B7D1E8590020D6F8BC344448B0EB930F73D2B0EBD30F4B
:20B4200051D2B0EB131F52D2B0EB531F53D2B0EB931F54D2B0EBD31F34BF802640264FE791
:20B44000D6F8BC343949B1EB930F4ED2B1EBD30F39D2B1EB131F3AD2B1EB531F3BD2B1EB34
:20B46000931F3CD2B1EBD31F41D2B1EB132F34BF4FF48076802633E70023C4F8F037E6E5D0
:20B4800004ADC0B20D6280F31188294861F01EFD4CE60D62C0B280F31188254861F016FD41
:20B4A0008DE60D62C0B280F31188484661F00EFDE2E690F87D37634480F87D374CE5022216
:20B4C000E6E50422E4E504260AE70822E0E5082606E71022DCE5102602E72022D8E5202636
:20B4E000FEE64022D4E58022D2E50226F8E64026F6E6D4F8F00738B1202141F0E3FB4FF071
:20B50000FF3051E50E46EBE64FF0FF304CE5D4F8E8179CE5C0F80090FFDEC3F80090FFDE69
:20B52000034A1A60FFDE00BF002D3101404B4C00185900200146014848F0F0BEF4590020FE
:20B54000014488420ED010B40346074C074813F8012B04FB00F0994280EA0200F7D15DF8C5
:20B56000044B70470148704793010001C59D1C81094B93F82E31042B08D9053B032B08D895
:20B5800001231A4600B103701046704700230122F8E700231A46F5E7402F0020F0B40D68CA
:20B5A00000240CE0BCF1050F18D8A0F137030A2B14D104EB840415F8010B03EB4404A0F18E
:20B5C0003003DEB2092EA0F16107A0F1410CF0D9052FE7D8A0F157030A2BEAD00D60146023
:20B5E000F0BC70479FED727A07EE901A20EE070AF8EE677A27EE800AFDEEC07A17EE903A58
:20B600002033402B00F2C480DFED6A7AB4EEE70AF1EE10FAF0EE407A0CDD9FED676ADFED60
:20B62000676AB0EE677AB4EEE67AF1EE10FA77EEC67AF6DC9FED627AF4EEC77AF1EE10FAE4
:20B640000CD59FED5D6ADFED5F6AB0EE677AB4EEE67AF1EE10FA77EE867AF6D49FED5A7A28
:20B66000F4EEC77AF1EE10FA00F38A809FED577AF4EEC77AF1EE10FA44BF9FED517A77EE99
:20B68000677A27EEA76ADFED525A9FED527ADFED526AA6EE257A67EE865AE6EE076AB6EEFA
:20B6A000007AE5EEA67A27EE877ADFED476A70EE267ABDEEE76A16EE103A2033402B64D848
:20B6C000B4EEE60AF1EE10FA0CDDDFED3B5A9FED3B6AF0EE676AF4EEC66AF1EE10FA77EE65
:20B6E000E57AF6DCDFED366AF4EEE67AF1EE10FA0CD5DFED315A9FED336AF0EE676AF4EE90
:20B70000C66AF1EE10FA77EEA57AF6D4DFED2E6AF4EEE67AF1EE10FA3DDDDFED266A76EE59
:20B72000E77A67EEA75A9FED2A5A9FED2A6ADFED2A6AA5EE856A27EEA55AE5EE866AB8EEC3
:20B74000006AE5EE267A67EE867AC7EE206AB7EE006A76EE865A76EE666A86EE257A80ED71
:20B76000091A67EE277A66EE876AC0ED017AC0ED037A80ED007A80ED027AC0ED046A704777
:20B780009FED0C7A77EE677A7BE7DFED147ADCE79FED127A89E7DFED0D6AF4EEE67AF1EEE6
:20B7A00010FA44BFDFED066A76EEE77AB9E700BF27D4D236DB0F4940DB0FC940E4CB1641AD
:20B7C000DB0F49C0E4CB16C1DB0FC93FDB0FC9BF92E741B99730083C15A82ABE0000000069
:20B7E0002DE9F843E14FDFF8E4E3D7ED3E7A2DED028BF8EE670A9EF85C4907F26C63C3EDFD
:20B80000000A002C6FD1DFF8C8C397F87866C7F874469CF80040002E39D0BEF862399FED82
:20B82000D46A9FEDD47A07EE903AF8EE677A20EE877AC6EE276AD04B0022012E1A6076EECC
:20B84000876AC7EE267AC3ED017A20D0022E9A60C3ED037A1BD0032E1A61C3ED057A16D084
:20B86000042E9A61C3ED077A11D0052E1A62C3ED097A0CD0062E9A62C3ED0B7A07D0072E5A
:20B880001A63C3ED0D7A02D09A63C3ED0F7ABB4B9FEDBB6A93F84E319FEDBA7A9FEDBA0A1B
:20B8A000BA4A07EE903AF8EEE77A9CF8583BC6EE276A1C4414FB06F6F6B207EE906A60EEC2
:20B8C000870AF8EEE77AC2ED006AA7EEA00A67F0E3FBBDEC028BFCEEC07A17EE903A87F85B
:20B8E000C837BDE8F883BCEEE06A9FEDA97A9EF85D39BEF860299FEDA72ADFEDA76ADFF80A
:20B90000D0C297F87866C7F874C6F8EE465A07EE903A87EE255A8CF8004007EE102ABEF84D
:20B920005E298CED025A16EE103AF8EE677A06EE102AB8EEC77A27EE822AB8EE466A67EE15
:20B94000266ACCF81430012322EE252ACCED017A8CED036ACCED046A87F87036002E96D0D2
:20B96000DFED8E7A9FED8E4ADFED8E5AC7EE871AC6EB0615A6EB06190CEBC5054FEAC9093D
:20B980004FF00008B1EE611A9FED876A09EB05009FED863ADFED863ADFED866A03460022D1
:20B9A00007EE902AB8EEE77A27EE027AFDEEC77A17EE901A2031402900F2D080B4EEC47A89
:20B9C000F1EE10FAF0EE477A0CDDDFED7B4A9FED7B5AF0EE672AF4EEC52AF1EE10FA77EE76
:20B9E000E47AF6DCF4EEE57AF1EE10FA0CD5DFED724A9FED735AF0EE672AF4EEC52AF1EE0C
:20BA000010FA77EEA47AF6D4F4EEC67AF1EE10FA40F39A8074EE677A27EEA75AB0EE630A13
:20BA2000A5EE030ADFED674AE5EE004A65EE272AB7EE005AE2EEA47AB0EE458AF0EE454A61
:20BA4000A1EEA78AE1EE274AC5EE088A84EE880A77EE067ABDEEE75A15EE101A20314029E5
:20BA60006FD8B4EEC67AF1EE10FA0CDD9FED525A9FED527AF0EE674AF4EEC74AF1EE10FAD0
:20BA800077EEC57AF6DCF4EEE57AF1EE10FA0CD59FED495A9FED4A7AF0EE674AF4EEC74A24
:20BAA000F1EE10FA77EE857AF6D4F4EEC67AF1EE10FA3CDD74EE677A27EEA75AF0EE632A87
:20BAC000E5EE032A9FED3F7AA5EE227A65EE274AB8EE005AE4EE877A67EE857A87EE887A90
:20BAE0000132A24203F1280343ED048A03ED037A03ED017A43ED028A83ED000AC3ED056A25
:20BB0000C3ED026AC3ED016AC3ED046AC3ED036AFFF646AF783085427FF43AAF08F5707819
:20BB2000B8F5346F05F570757FF42EAF75E69FED267AF4EEC77AF1EE10FA48BF75EEE77A28
:20BB4000BAE7F0EE667AC9E79FED1F5AF4EEC57AF1EE10FA48BF75EEE77A5DE7B7EE000A09
:20BB6000F0EE408AB0EE408A72E700BF0800001083F9223EBD378635945A0020402F00205D
:20BB8000555555406E12833A48E1FA3ECC0700100060EA4827D4D2360AD7233C0000484286
:20BBA000DB0F4940DB0F49C0DB0FC93F92E741B99730083C00000000DB0FC940E4CB1641B6
:20BBC000E4CB16C115A82ABEDB0FC9BF305100204C1800102DE9F04F07EE900A2DED068B24
:20BBE0009FEDF07AF04BDFEDF16AB3F8A429F04F93F8AA59C7F81C08B8EE679A0AEE102AEC
:20BC000087EE095AB3F8A629C7F8D85783B008EE102AB3F8A829DFEDE77AB8EE4AAA08EE48
:20BC2000902AB8EEC88A3AEE0A7AF8EEE88AB4EEC78AF1EE10FA68EEA77AB4EEE65A07F220
:20BC4000CC73B8BFB0EE478A0022F1EE10FA83ED028A83ED01AAC3ED007AC7F8DC2700F1C0
:20BC6000038307EE905AF8EEE77AB7EE007AC7EE279AD14BDFF878A3194614319C4601915D
:20BC80009AF8982003F12C04F6EE005A65EE256AF7EE007A86EE887ADFEDC83ADFEDC84A95
:20BCA0009FEDC86AD3ED05AAB4EEE77AF1EE10FAB8BFB0EE677ABDEEC77AB0EE004A17EE9C
:20BCC000106AB8EEC77AC7F8786AC5EE076A87EE875A66EEA36AACEC015A8AEE267AC8EEC6
:20BCE000267A37EE257A77EEA57AB4EEC47AF1EE10FAB8BFB0EE447AF4EEE47AF1EE10FA97
:20BD0000BDEEC77A88BFF0EE647A17EE100AFDEEE77A00F1FF3B17EE901ABBF1230FA8BFAA
:20BD20004FF0230BCCED006A012E01F1010CB8BF0126BCF1230F2BEAEB7BE04629EE066AA0
:20BD4000A8BF4FF02308E345C8BFD846C7F8840AC7F8881A83ED046AA8EB0B0797FBF6F795
:20BD60000137002A40F0E380DFED970ADFEDA15A9FEDA12A9FED955ADFEDA32A9FEDA33AC6
:20BD8000DFEDA33A9FED924ADFEDA21A0AF19C0107EE902AB8EEE76A66EE207A37EEA57A9A
:20BDA000FDEEC76A16EE903A2033402B00F21582F3EE026AB4EEE66AF1EE10FA0CDDDFED75
:20BDC000904ADFED8E6AB0EE471AB4EEE61AF1EE10FA37EE647AF6DCB4EEC57AF1EE10FA9C
:20BDE0000CD5DFED874ADFED876AB0EE471AB4EEE61AF1EE10FA37EE247AF6D4B4EEE57AF0
:20BE0000F1EE10FA40F3FE81DFED726A36EEC77A67EE076AB0EE431AA6EEA21AB0EE630A5E
:20BE2000A1EE260A67EE264AFDEEE76AA4EE807A16EE903A2033402B27EE047A00F2D7814D
:20BE4000DFED656AB4EEE66AF1EE10FA40F300829FED6B0A9FED691AF0EE676AF0EE664A6A
:20BE6000F4EEC14AF1EE10FA76EEC06AF6DC9FED591AF4EEC14AF1EE10FA13D59FED601AC9
:20BE8000DFED604AB0EE660AB4EEE40AF1EE10FA76EE816AF6D4DFED506AB4EEE66AF1EE35
:20BEA00010FA0CDD9FED566ADFED546AF0EE674AF4EEE64AF1EE10FA77EEC67AF6DCF4EED6
:20BEC000C57AF1EE10FA0CD59FED4D6ADFED4D6AF0EE674AF4EEE64AF1EE10FA77EE867AA4
:20BEE000F6D4F4EEE57AF1EE10FA40F38381DFED396A76EEE77A67EEA76AF0EE434AE6EE3E
:20BF0000A24AB0EE631AA4EEA61A27EEA66AE6EE017A67EE847A0132242A81ED007AC1EDEA
:20BF2000017A01F108017FF433AFDFED2CAA4FF0000944E9059B44E902764FF49072002174
:20BF4000204644F80C8C68F02EFB4FF49072A018002168F028FB224B04F51574A342E8D100
:20BF6000019BDFED207AC3ED00AA012329EE279A8AF89830002D00F02B81DFED1B7A1B4E8C
:20BF80009FED142ADFED112AC7EEA81AA6F1140406F5117738EE4A8AB1EE611A69EE889A9A
:20BFA0003EE000BF00247449305100200000FA44080000100AD7233C840A0010398E633C88
:20BFC00000000C429C534937C3B8B23DDB0F49C072F97F3FDB0F494000001042BC297E3FB7
:20BFE000AC11001027D4D23600004842E807001000110010DB0FC93F00000000E4CB1641CF
:020000040800F2
:20C00000DB0FC940E4CB16C192E741B99730083C15A82ABEDB0FC9BF000010C20000807F41
:20C020005FED0C5A5FED0C6A234630460022B7EE005A07EE902AF8EEE77AB6EE007A77EE13
:20C04000877AB0EE4A7AA7EEA97AF0EE477A29EE077AE0EC017AFDEEC77A17EE901A20311B
:20C06000402900F2D780B4EEC27AF1EE10FAF0EE477A0CDD1FED1E4A5FED204AB0EE676A26
:20C08000B4EEE46AF1EE10FA77EEC47AF6DCF4EEE27AF1EE10FA0CD51FED274A5FED274A10
:20C0A000B0EE676AB4EEE46AF1EE10FA77EE847AF6D4F4EEE57AF1EE10FA40F3B58072EE19
:20C0C000677A67EEA74A5FED303A1FED304A1FED306AA4EEA34A67EEA43AA4EE246AF0EEA7
:20C0E000454AE3EE867AB0EE456AE1EE274AA1EEA76A84EE864AC5EE064A77EE257AFDEE7F
:20C10000E73A13EE901A2031402900F28A80B4EEE57AF1EE10FA0CDD1FED473A5FED493A6E
:20C12000B0EE677AB4EEE37AF1EE10FA77EEC37AF6DCF4EEE27AF1EE10FA0CD51FED503A86
:20C140005FED503AB0EE677AB4EEE37AF1EE10FA77EE837AF6D4F4EEE57AF1EE10FA6DDD02
:20C1600072EE677A27EEA73A5FED590A5FED593A1FED597AE3EE203A63EE270AA3EE237A40
:20C18000F8EE003AE0EE877A67EEA37A87EE867A0132AA4203F12803C3ED0B4A83ED0C7A90
:20C1A00083ED0E7AC3ED0D4A83ED0F4A83ED145AC3ED116AC3ED106AC3ED136AC3ED126A2B
:20C1C0007FF437AFC834A74206F114067FF428AF03B0BDEC068BBDE8F08FFDEEE76AB0EEDB
:20C1E000427A16EE903A2033402B7FF629AEF0EE427A90E6F4EEE17AF1EE10FA48BF75EE0B
:20C20000677A78E6B4EEE17AF1EE10FA48BF35EE477AFDE5B7EE004AF0EE444AB0EE446A85
:20C220006BE7F0EE667AB1E71FED866AF4EEC67AF1EE10FA48BF72EEE77A42E71FED8B7A4D
:20C24000F4EEC77AF1EE10FA48BF72EEE77A89E75FED8F6AB4EEE66AF1EE10FA48BFF0EE95
:20C26000676A3FF50BAE2AE65FED949AC7F8D8271546FEE40848002302461178022902F119
:20C28000060204D00133062BF7D10020704703EB430300EB43007047801E002000B5002111
:20C2A000084B83B00846C3F8AC1934F00DF80422054B01930DEB0201062033F0F9FF03B008
:20C2C0005DF804FB305100205475C52A70B5461E00F13105344614F8011F601E801BFF291A
:20C2E000C0B201D033F0F0FFAC42F4D1A02056F0A3FB0121022033F0E7FF40F2E93401E015
:20C30000013C04D04220FFF715F90028F8D16220FFF710F91321242033F0D6FF2520092155
:20C3200033F0D2FFBDE87040A02056F085BB00BF0D4B0E49D3F8BC340A8810B40C4C5B0834
:20C34000A4FB034322F45C729B0C01381204013B012480B2120C9BB20A80C8620B858C82CE
:20C360005DF8044B704700BF402F0020000C004083DE1B4338B50C4C0546A11CD52254F081
:20C3800049FC2B68A342C5E90043A3EB04000AD004F14002611C2960237802F8013BD5E9B7
:20C3A0000041A142F6D138BDE05A002010B5204B84B0C82403F51F6103F6B1122128CDE9C0
:20C3C000022183F8B04918D00CD802281ED0082825D102A801900AF0EDFE0198FFF7CAFF44
:20C3E00004B010BD29281AD102A801900AF09CFD0198FFF7BFFF04B010BD02A801900AF0AF
:20C40000DDFD0198FFF7B6FF04B010BD02A801900AF01CFF0198FFF7ADFF04B010BD02A8C7
:20C4200001900AF03DFE0198FFF7A4FF04B010BD3051002010B582B00A788DF80720040AAF
:20C4400018238DF804308DF806008DF8054056F081F901AA03481146042348F055F902B027
:20C4600010BD00BFF459002010B582B0040A192200238DF801408DF800200C468DF80330EB
:20C480008DF8020056F066F96A4605481146052348F03AF99DF80430237002B010BD00BFEF
:20C4A000F459002010B58CB000234CF20502044601A9CDE90633CDE90833ADF800208DF888
:20C4C000023003220B930123CDE903128DF814308DF82830CDF808D048F05CF9204602A997
:20C4E00047F04CFD204648F055F99DF806000CB010BD00BF2DE9F043764D774F83B005F1F2
:20C5000038002422002168F04EF897F8314A0023EB65002C39D1714ED6F8F83053B39B6A6B
:20C5200043B36F489847836823B303886D4F013B9BB2BC46384600210678032E00F1060097
:20C540001CD001310629F7D100223978022907F1060700F09E800132062AF6D1E96D052907
:20C5600008D0481C02FB01C2E86502200021938010705180204603B0BDE8F083062303FB73
:20C5800001514B8F013B9BB2DEE797F8300A07F63823C7F8343A10B9504E0024BCE744F071
:20C5A000CFFCC7F8400A18B183790BB1412BF3D121464D4847F052FE04460028ECD0D7F876
:20C5C000343A474A9868C3F8942008B12023C380092140F053FDD7F8343A404E986845F004
:20C5E000FBF84248D7F8348A47F06EFE4FF00109A8F804003220C6F8188186F81C9141F09C
:20C6000029FA0423D7F8340A4FF0000C0DEB03029F21CDF804C047F083FF9DF805809DF8CA
:20C6200004309DF806104FEA082848EA034848EA0108414606F1F80055F0CCFC00287FF4DC
:20C640006BAF4046FBF792FF034600287FF464AF9DF806009DF805209DF80710000240EA93
:20C660000240234A0843904217D0C6E94033A6F8FC30A6F80831FBF779FF804600287FF479
:20C680004BAF97F8300A44F05BFC46F0CFFD444642E7062101FB02C267E7164AC6F8FC2028
:20C6A0004FF400334FF00062C6F800314023A6F80831C6F8042186F80A91FBF701FD06F157
:20C6C000F80086F8119155F0D1FB0B4BC6F8F83022E700BF481E002030510020402F002077
:20C6E00038300020801E0020685B0020404B4C0021AAEF0000040008484607082DE9F04190
:20C70000C94BCA4ECA4DCB4C0822C3F88820336B82B043F00103336307464FF4C052284685
:20C7200040F2023388466946CDE9002308F058FF6B6AC14ADFF848C323F470436B626B6ABF
:20C7400043F420436B626B6A23F470236B626B6A43F420236B62736CB84D43F4804341F2F9
:20C76000B4017364736B44F8018041F2BC0143F08003675041F2B80EB14973630227C4F887
:20C78000D41AB04EB04BB14944F80E5084F8D87A4FF0A045AE4FC4F8DC5AC4F8E06AC4F87B
:20C7A000E83AC4F8241B05F5326506F5A07603F51073A1F5D071C4F8EC7AC4F8285BC4F84B
:20C7C000F06AC4F82C3BC4F8F41A012307F51077A5F5E465A6F5A066A1F58C61C4F8D0CA0E
:20C7E000C4F8307BC4F8E45AC4F89C6B84F8DB3A05F5A075536106F5B076C4F8601B84F8ED
:20C80000E23B1946934B944AC4F8685BA7F5BC67A035C4F8746B914EC4F8707BC4F8783B3D
:20C8200007F5D45703F56953C4F87C5B4FF050250020DFF850E2DFF850C2C4F8A02BC4F881
:20C84000A47B02F5A04207F5A047C4F8A86BC4F8AC3B06F5A046A3F54853C4F8B05B04F5B7
:20C860002D65C4F8B42BC4F8BC6BC4F8DC3BC4F864EBC4F86CCB0246C4F8B87B2B4684F8B3
:20C88000E40B402683F81C21A3F822210132042AC3E9496083F81D1183F81F01C3F83001C7
:20C8A00003F12803EED1002211462B46402083F87423A3F87A230132042AC3E9DF0183F89E
:20C8C000751383F87713C3F8881303F12803EED14FF0A04362489A6822F001029A60DA6878
:20C8E00042F04002DA6007F001FF94F8D93A0022212161F317420BB142F4801294F8D31AE6
:20C90000D4F8DC3A01299A6300F0E380DA68D4F8DC6BD4F8E00AC2F3076121F0600141F0F0
:20C92000400161F31F620021DA603160026861F3CC22026094F8DB2A012A00F0B7801021D3
:20C94000484808F025FA474808F008FAD4F8E00A94F8D13A00224FF0FF31026142618161E1
:20C96000C26153B305F114073F4E114607EB83074FEA830C4FF0FF0E56F8042F1368002BE2
:20C98000ACBF00234FF09043B74213601161C2F808E0F1D105F15003344963440027FF26FC
:20C9A00051F8042F1568002DACBF00254FF090459942156017619660F2D1036994F8D31A47
:20C9C00043F480730129036160D0D4F8DC2A28480023936100294FF0FF336FF080415161AA
:20C9E0005360516114BF00231023906143F47013916943F4605343F008030B43936141F267
:20CA0000B8019368615843F0010393600B689847184B194ADA606846184B009308F096FB00
:20CA200002B0BDE8F08100BF00E100E0003802400000024030510020003C01404C04002064
:20CA4000400040010008005000090050000B005020090050C00500500010005000300050DB
:20CA60000C5C0020005C0020145C0020505C00200008008000ED00E00005FA0543020001B7
:20CA8000080401002005005060050050D4F8DC2A144B03636FF08041134D00234FF0FF30B7
:20CAA000936151615060516195619FE701680F4A0F4E41F003010160802159629E62C3F826
:20CAC0000421E022C3F80821C0F24002C3F80C2135E79A6822F03E0141F02A0161F3070247
:20CAE0009A6013E70301810000080080A00040008000200010B51A4C14F8330CC0B9194B62
:20CB000083F8B100C3F8B40014F8303C012B05D0022B21D054F82C3C1BB910BD124B44F8F5
:20CB20002C3C12495B68BDE81040A1F10C00184744F006FA14F8312C0A49003A18BF012259
:20CB400081F8B120C1F8B4000028DDD01F22C280202140F093FAD7E7054B44F82C3CE0E74F
:20CB600028620020481E00208C040020006200206804002091B10A6B824214D9144B5A693D
:20CB8000914220D34C3991421DD30B6B9842F9D38B6B9842F6D80B46184670470C4B59694E
:20CBA0000A6B904212D30B680BB9F5E70A6B90420B4602D38A6B9042EED951F84C3F002B3C
:20CBC000F4D1184670470023184670470A46D9E7286200202DE9F047CC0143D10346224AA6
:20CBE00043F8082B4FF0FF324260022418467E26DFF87880D8F818902644013E051D4946EC
:20CC00006FF070474FF0010A08E0A3421CD0631C45F8043C321B1C460435CAB10B6BA34241
:20CC200002D88B6BA34204D22046FFF7A3FF014690B10A794B6B002AE7D1A34204D0E6D257
:20CC400045F8042C631CE5E745F8047C631CE1E7C8F81810BDE8F08745F804AC321B631C5B
:20CC60004946D8E78026C3E7F8FFFF0F2862002070B4447941BB03684FF400524FF40076D1
:20CC8000202502213CBB1A8C22F001021204120C1A841A8B188C22F0F30280B2120420F000
:20CCA0000A00120C014342F0010241F001011A8319841A8B22F00C021204120C1A831A8B2B
:20CCC00092B270BC1A83704700220368164615461146002CD7D0042C21D0082C38D0198C20
:20CCE00021F480510904090C19849C8B1D8C45F6FF7040F6FF4128402140024342F4805289
:20CD000041F4807199831A849A8B22F440621204120C9A839A8B92B270BC9A8370471A8CF6
:20CD200022F010021204120C1A84188B198C89B240F6FF4221F0A00102400D4342F4807297
:20CD400045F010051A831D841A8B22F44062B3E71A8C22F480721204120C1A84998B1A8C0A
:20CD600021F0F30192B2090422F42062090C324342F4807241F0010199831A849A8B22F0EF
:20CD80000C02C4E738B50E4D0446006808F02CFBD5F8BC24204652084FF6FF713FF0E4FA92
:20CDA00020460021FFF764FF064BC5F8283D05F6285120460022BDE838403FF019BA00BF46
:20CDC000402F0020B9130208036870B55E6A26B133460522BDE87040184704460D464E1D63
:20CDE00000E023689B68204698470028F9D0236815F8011B1B6820469847B542F1D170BD2D
:20CE0000036870B55E6A26B133460822BDE87040184704460D4601F1080600E023689B6881
:20CE2000204698470028F9D0236815F8011B1B6820469847B542F1D170BD00BF0A4491427A
:20CE400017D010B40139541E11F8013F08225840430010F0800F08BF400083F0D50314BF79
:20CE6000D8B2C0B2013AF3D1A142EDD15DF8044B704770472DE9F047164D0746002095F959
:20CE8000259005F12C0684B007EB010805F5337504464FF0B60A3368ABB193F83830142B72
:20CEA00011D019F1020F01D04B450CD1002269463046CDE90244CDE90078ADF808A08DF8F5
:20CEC0000D4034F00DFEE036B542E4D104B0BDE8F08700BF286200202DE9F0479AB0DDE97E
:20CEE000226ADDF8909004460D461746984602E0206841F0EBFA206841F0F0FA0028F7D1C6
:20CF00000146642201A867F04EFB264B8DF80450CDF85CA00293002D40D0AB1E012B3FD911
:20CF2000042D14BF002203221F4B0396D3F884308DF805201E440123CDE9059404968DF886
:20CF40005B3037B14246394607A867F0CBFA8DF85A80164E96F80E9300231893B9F1000F13
:20CF600019D196F80D03642202FB006001A900F5447067F0B7FA012386F80D9386F80E33EA
:20CF8000236843B143463A46294620461AB0BDE8F04712F045B81AB0BDE8F0870522C3E7D8
:20CFA0000222C1E7F4640020402F0020286200200C480D4BD0F8901310B40C4CC0F8803356
:20CFC0008A1E2231B0F8AE331B01A4FB03C3DB08A3F5B06322F8023F9142F3D15DF8044B28
:20CFE000704700BF28620020B97E0208CDCCCCCC70B5084C251D2E4614F8010B37F060FAD7
:20D0000028B1037805F8013BB442F5D170BDFF23F8E700BFFC6500202DE9F0471D4F012679
:20D0200007F10805B2464FF03C094FF0000817F8010B43F085FF044690B180F80690C67186
:20D04000FB7803F07F02012A18D013F0800F20460DD185F8048044F0B9FB85F805802C6089
:20D060000136052E05F10805E1D1BDE8F08785F804A044F0B1FB85F805A0F0E71B0605D481
:20D08000012120463FF0FAFFFB78DEE744F0A4FBF6E700BF046600202DE9F04FDFF8FC91F6
:20D0A000DFF8FCA183B009F10C06012419F8018BB8F1000F00F0C6804FEA1815013D052D37
:20D0C00008F00F0200F2C1800AEB4503B3F8840040FA02F717F0010700F0D280012393402D
:20D0E000013B1840554464F0CBFC95F89030664F184407EBC00704237761FC71BB71002316
:20D1000002E0152B00F09E8003EB43025F49895C41454FEA430B03F10103F2D15C4B1A4452
:20D1200092F85111002900F0AD8040463FF068FB054628463FF084FB0378002B40F0828066
:20D14000534B5B44042283F8914183F89021002D78D0002F5DD03B68287A03F13F4202F571
:20D160007E020AEB92224FF0010C92F8982002F01F015209032A0CFA01F171D0042A67D0C0
:20D18000022A75D0B7F804E0BEFA8EF2C2F11F02C2F3CC0103EB810102F007020F6A920087
:20D1A0004FF00F0C0CFA02FC27EA0C070F620F6A90403843002208624FF0010B11460BFA85
:20D1C00001FC3CEA0E0001F101011ED118680327974020EA07001860D3F8008002209040F4
:20D1E00040EA08001860986820EA0700986098689860586820EA0C00586058685860D8683E
:20D2000020EA0700D860D868D860102902F10202D5D1204B204AB3F80414B3F80634009169
:20D22000002001340190B2FBF3F330469BB22946E4B233F073F80123092C737406F11806CA
:20D240007FF434AF03B0BDE8F08F0027776156E7DFF850C0DCF830200A43CCF8302091E781
:20D26000DFF840C0DCF840201143CCF8401089E7DFF830C0DCF844201143CCF8441081E7F8
:20D2800077613CE70D4654E7FC30002090300020402F00202862002040420F003066002059
:20D2A000484607080038024070B5044684B04FF4004039F08DF880B300234FF4E1310325B0
:20D2C00090F904000293CDE900151A464FF4004139F0DBF8124BC3F8D404F0B1012C40F68D
:20D2E000980208BF4FF496620E480F4DA3F8E0244FF461710D4AC3F8EC040A2683F8D84463
:20D30000C3F8DC64A3F8E214A3F8E414C3F8E854C3F8F024012004B070BD0020FBE700BF65
:20D32000286200205514020879FF01086DFF01082DE9F041214E224F96F8133587F8903E90
:20D3400006F5A26607F6946500244FF0050816F8010B20BB28600134032C05F10405F6D1BD
:20D3600097F8901ED7F8940EC94301F0010144F039FA97F8901ED7F8980E81F00201C1F3BF
:20D38000400144F02FFA97F8901ED7F89C0E81F00401BDE8F041C1F3800144F023BA43F074
:20D3A000CFFD013401212860E3B210B180F80680C37128683FF062FECEE700BF28620020FD
:20D3C000402F00202DE9F0412A4C2B4DB4F81865A5F8A06E82B0EEB994F8140543F0B0FD57
:20D3E00094F81525C5F8A40E003A18BF012285F8A22E48B194F816152B22002914BF11214C
:20D400000121C2803FF03AFE002002B0BDE8F04145F044BC94F81485002240462B213FF01C
:20D4200045FA0746404643F08BFDF8B1F7B12B22C5F8BC0EC280397AFCF796F84FF000083D
:20D440000E4AB2FBF6F3C3F34F0000909BB23946CDF8048005F6A860A4F81A6532F05EFF97
:20D46000D5F8A83EC3F8008085F8B98E02B0BDE8F08100BF28620020402F002040420F00A9
:20D480002DE9F84F254C94F8283584F81C3504F21F57002604F23C545FFA86FB0BF1010811
:20D4A0005FFA88F8012117F8010F42460E448A463FF0FCF94FF00009054640B3387804F852
:20D4C0000E9C04F80D9C04F80FBC04F810AC44F8045C43F035FD18B180F806A080F8078097
:20D4E000297AFCF741F80E4A002128463EF03CFF0C4B23600C4B221D21462846C4E90139E1
:20D500003EF076FE697928684A4632F083FE082E04F11C04C0D1BDE8F88F00BF2862002053
:20D5200040420F004D020408FDC4030870B52C4C2C4B94F85406C4F84C3600220221C4F8FA
:20D540000C26C4F81026C4F81426C4F84826A4F850263FF0ABF9002841D0234B0668054642
:20D5600003F1C0015A7C12B15A6896422BD018338B42F7D1002394F85406C4F8385584F81A
:20D580002C3543F0DDFC08B10223C380297AFBF7EBFF2846154A00213EF0E6FE144A1549C2
